:020000040800F2
:1000000050060020D9010008393A0008591A0008A2
:1000100085380008010900087D4000080000000044
:100020000000000000000000000000003D3A000851
:10003000010B0008000000003B3A00085B3A000892
:10004000F3010008F3010008F3010008F3010008C0
:10005000F3010008F3010008F3010008F3010008B0
:10006000F3010008F3010008F3010008F3010008A0
:10007000F3010008F3010008F3010008F301000890
:10008000F3010008F3010008F3010008F301000880
:10009000F3010008F3010008F3010008F301000870
:1000A000F3010008F3010008F3010008F301000860
:1000B000F30100080D3B0008F3010008F3010008FC
:1000C000F3010008F3010008F3010008F301000840
:1000D000F3010008F3010008F3010008F301000830
:1000E000F3010008F3010008F3010008F301000820
:1000F000F3010008F3010008F3010008F301000810
:10010000F3010008F3010008F3010008F3010008FF
:10011000F3010008F3010008F3010008F3010008EF
:10012000F3010008F3010008F3010008F3010008DF
:10013000F30100080000000000000000F3010008C7
:10014000F3010008F3010008F3010008F3010008BF
:10015000F3010008F3010008F3010008F3010008AF
:10016000F3010008F3010008F3010008F30100089F
:10017000F3010008F3010008F3010008000000008B
:1001800000000000F3010008000000000000000073
:10019000F30100080000000000000000F301000867
:1001A000000000000000000000000000F301000853
:1001B000F3010008F3010008F3010008F30100084F
:1001C000F3010008DFF80CD000F042FB00480047C4
:1001D000894D000850060020064880470648004721
:1001E000FEE7FEE7FEE7FEE7FEE7FEE7FEE7FEE7E7
:1001F000FEE7FEE7F13A0008C50100082DE9F05FCF
:100200000546002092469B46884606468146402485
:100210001BE0284641464746224600F033FA534643
:100220005A46C01A914110D311461846224600F092
:100230001AFA2D1A67EB01084F46224601200021C9
:1002400000F011FA17EB00094E41201EA4F1010441
:10025000DFDC484631462A464346BDE8F09F0000B1
:100260000649074A0868504343F2390210440860BF
:100270004008704701490860704700004C000020AA
:100280006D4EC64140EA01039B0703D009E008C94F
:10029000121F08C0042AFAD203E011F8013B00F84B
:1002A000013B521EF9D27047D2B201E000F8012B97
:1002B000491EFBD270470022F6E710B513460A46E6
:1002C00004461946FFF7F0FF204610BD2DE9FE4F0A
:1002D000804681EA0300C00F0C46009021F00041E7
:1002E00023F00045B8EB0200A94105D24046214663
:1002F00090461C460B46024623F00040104347D070
:10030000270DC7F30A00C3F30A510290401A019067
:1003100040286BDAC3F3130040F4801B0098924628
:1003200020B10023D2EB030A63EB0B0B0198594673
:10033000C0F14002504600F096F906460D46504680
:100340005946019A00F0AEF910EB08006141002413
:1003500087EA115284EAE7731A4340D0009A62B3E5
:10036000019A012A4FEA075215DC001B61EB0201DA
:100370004FF0004202EA0752CDE90042001C41F56D
:10038000801132462B4600F0E5F903B0BDE8F08F4E
:1003900040462146F9E7001B61EB0201001C41F5D4
:1003A000801300185B412018A2F5001747EB0301EA
:1003B00040EAD570B6196D4111E06D084FEA360676
:1003C00045EAC0754FEA0752001B61EB0201001CB1
:1003D00041F5801149084FEA300000195141324679
:1003E0002B4603B0BDE8F04F00F0A5B900980122FC
:1003F00040000023D0EB020263EBE073009821463B
:100400004FEAE074B8EB000061EB0401E9E783F028
:1004100000435BE781F0004158E72DE9FE4F81EA98
:10042000030404F0004421F0004100944FF0000B5D
:1004300023F0004350EA01045ED052EA03045BD08B
:10044000C3F30A54C1F30A552C44A4F2F3340194C3
:10045000A0FB0254C1F3130141F48011C3F3130351
:1004600043F4801301FB024400FB034E840A970A05
:1004700044EA815447EA8357A4FB076802958D0A32
:1004800005FB07854FEA932C04FB0C542705029DBE
:100490004FEA065847EA1637B5EB08056EEB070C2E
:1004A000870E920E47EA811742EA8312A7FB0201E8
:1004B000B6EB0B0164EB00042B0D43EA0C335E1822
:1004C00044EB1C50DA465146E7FB0201C5F3130426
:1004D0004FEA0B3343EA14534FEA0432019C43EAD8
:1004E0000603A4F10C040294009CCDE900B400F0D2
:1004F00031F903B0BDE8F08F00200146F9E72DE99E
:10050000F04D81EA030404F0004B21F0004514464D
:100510004FF0000A23F0004150EA050220D054EACF
:1005200001021DD0C5F30A570246C5F31303C1F3F8
:100530001300C1F30A5640F4801543F48013A7EB6F
:100540000608101BD64608F2FD3873EB050002D3EF
:1005500008F1010801E092185B41B8F1000F03DADD
:1005600000200146BDE8F08D00204FF480110646C2
:1005700084460EE0171B73EB050705D3121B63EBD4
:10058000050306434CEA010C49084FEA3000921873
:100590005B4150EA0107EDD152EA030012D082EA32
:1005A000040083EA0501084305D0101BAB4106D2C5
:1005B0000122002306E000224FF0004302E06FF02A
:1005C000010253101AEB06004CEB085110EB0A0025
:1005D00041EB0B01BDE8F04D00F0ADB800F000427A
:1005E00030F000400AD0C10D01F56071C0F3160073
:1005F00042EA0151C20840071143704700200146FA
:10060000704701F0004330B421F0004150EA01028C
:1006100006D00A0DA2F56072C1F31301002A02DCB4
:1006200030BC00207047440F44EAC104C100E01808
:1006300030BC00EBC25000F047B830B50B46014665
:1006400000202022012409E021FA02F59D4205D371
:1006500003FA02F5491B04FA02F52844151EA2F11B
:100660000102F1DC30BD202A04DB203A00FA02F15D
:10067000002070479140C2F1200320FA03F3194390
:1006800090407047202A04DB203A21FA02F0002132
:10069000704721FA02F3D040C2F120029140084392
:1006A00019467047202A06DBCB17203A41FA02F0A0
:1006B00043EAE07306E041FA02F3D040C2F12002BF
:1006C00091400843194670470029A8BF7047401C55
:1006D000490008BF20F00100704710B4B0FA80FC58
:1006E00000FA0CF050EA010404BF10BC704749B195
:1006F000CCF1200421FA04F411FA0CF118BF012105
:1007000021430843A3EB0C01CB1D4FEA00614FEAE4
:10071000102042BF002010BC704700EBC3501044B3
:100720000029A4BF10BC7047401C490008BF20F03E
:10073000010010BC704710B5141E73F1000408DAF4
:10074000401C41F1000192185B411A4301D120F095
:10075000010010BD2DE9F04D92469B4611B1B1FA52
:1007600081F202E0B0FA80F220329046FFF77BFF80
:1007700004460F4640EA0A0041EA0B0153465A4636
:10078000084313D0114653EA010019D0C8F14002C2
:100790005046FFF777FF05460E46504659464246FB
:1007A000FFF761FF084305D0012004E020463946E9
:1007B000BDE8F08D0020054346EAE0762C43374340
:1007C0000A986305E40AA0EB08000022FD0A44EA47
:1007D00047540A3002D500200146E9E70105101907
:1007E0006941DDE9084500196941BDE8F04DA2E71E
:1007F000C1F30A52C1F3130140F2FF3341F48011F7
:100800009A4202DA00200146704740F233439A428E
:10081000A2F2334202DC5242FFF734BFFFF723BF9C
:1008200030B5041E71F1000404DB4FF00044404277
:1008300064EB0101141E73F1000405DB1C464FF04C
:100840000043524263EB0403994208BF904230BD1B
:10085000064C074D06E0E06840F0010394E807000D
:1008600098471034AC42F6D3FFF7B0FCE85A0008C2
:10087000085B000870B50646DDE904050C46104427
:1008800001B2304604F024FA0146104604F01CFA86
:10089000321A581901B2204604F01AFA01461846D5
:1008A00004F012FA201A12FB02F110FB00101928B2
:1008B00001DA012070BD002070BD38B54FF6FF741D
:1008C00000210A23F0220846009401F0D1FB4FF4E6
:1008D000A07500212B460A220846009401F0C8FBAF
:1008E0002B460A220021E620009401F0C1FB0A23D6
:1008F000F0224FF49B710020009401F0B9FB38BD49
:10090000FEE700007CB54FF4A0760A256B4CCDE9DC
:10091000005694ED010AD4ED030A0023E62230EEDE
:10092000200AD4ED020ABDEEC00A10EE100A94EDC2
:10093000000A01B230EE200ABDEEC00A10EE100A25
:1009400000B2FFF797FFE0B9CDE9005694ED010A38
:10095000D4ED030A00231A4630EE200AD4ED020A31
:10096000BDEEC00A10EE100A94ED000A01B230EE9E
:10097000200ABDEEC00A10EE100A00B2FFF77AFF9F
:1009800008B100207CBDF026CDE9006594ED010A98
:10099000D4ED030A4FF49B73002230EE200AD4ED0D
:1009A000020ABDEEC00A10EE100A94ED000A01B270
:1009B00030EE200ABDEEC00A10EE100A00B2FFF7BA
:1009C00059FFE0B9CDE9006594ED010AD4ED030AC1
:1009D00000231A4630EE200AD4ED020ABDEEC00A0A
:1009E00010EE100A94ED000A01B230EE200ABDEEBE
:1009F000C00A10EE100A00B2FFF73CFF08B1012058
:100A00007CBD3226CDE9006594ED010AD4ED030AE0
:100A10002A4A30EE200AD4ED020A2832BDEEC00A7E
:100A200010EE100A94ED000A01B230EE200ABDEE7D
:100A3000C00A10EE100A92ED010A00B2BDEEC00A23
:100A400010EE103A92ED000A1BB2BDEEC00A10EE95
:100A5000102A12B2FFF70EFF08B103207CBDCDE9CA
:100A6000006594ED010AD4ED030A144A30EE200A21
:100A7000D4ED020A1432BDEEC00A10EE100A94ED55
:100A8000000A01B230EE200ABDEEC00A10EE100AD4
:100A900092ED010A00B2BDEEC00A10EE103A92EDDE
:100AA000000A1BB2BDEEC00A10EE102A12B2FFF708
:100AB000E1FE08B102207CBD04207CBD5001002075
:100AC0000FB40D499DED000ADDED020A30EE200A5B
:100AD000DFED080A70EE200A10EE900A884204DC6E
:100AE00010EE100A0549884202DA012004B070476E
:100AF0000020FBE700004842000066430000204160
:100B00007047704770B5044600F0E8F80546601C71
:100B100002D004480078044400F0E0F8401BA042F2
:100B2000FAD370BD3C0000202DE9F84F00224FF0B1
:100B3000010803254FF00F0E0B6808FA02F423405A
:100B4000A3426ED14E68012E05D0022E03D0112E85
:100B500001D0122E12D186684FEA420C05FA0CF72A
:100B6000BE43CF6807FA0CF7374387604668A64351
:100B70000C79C4F30014944034434460C6685700B1
:100B800005FA07FC8C6826EA0C06BC403443C460B6
:100B90004C68022C01D0122C13D1D40800EB840431
:100BA000A346D4F8209054074FEAD46A0EFA0AF606
:100BB00029EA06090E6906FA0AF646EA0906CBF89A
:100BC000206006680C7926EA0C0604F00304BC4099
:100BD000344304604C68E40060D5334C266846F426
:100BE00080462660246822F0030604F480440094C2
:100BF0002E4C3444A446D4F808489607370F0EFA12
:100C000007F6B4432A4EB04201D100261FE0294E18
:100C1000B04201D101261AE0274EB04202D102268D
:100C200015E03BE0254EB04201D103260FE0244EF3
:100C3000B04201D104260AE0224EB04201D105267D
:100C400005E0214EB04201D1062600E00726BE4055
:100C50002643CCF808681D4E34684F689C43FF0358
:100C600000D51C433460194E361D34684F689C43D0
:100C7000BF0300D51C433460144E083634684F68F7
:100C80009C43FF0200D51C433460104E0C36346880
:100C90004F689C43BF0200D51C433460521C102A8D
:100CA000FFF44AAFBDE8F88F4438024000300140FD
:100CB000000002400004024000080240000C024014
:100CC000001002400014024000180240003C0140A5
:100CD0000AB1816170470904FBE7000001488068A0
:100CE000704700003C0000200248816802781144EF
:100CF000816070473C0000200B4810B5016841F44A
:100D000000710160016841F480610160016841F493
:100D100080710160032000F071F8002000F006F8F7
:100D200000F024F8002010BD003C024070B50D4DCD
:100D300004464FF47A712878B1FBF0F00A4909684B
:100D4000B1FBF0F000F020FB48B9102C07D20022D4
:100D50002146501E00F032F800206C6070BD01206A
:100D600070BD00003C000020480000200B4882B00D
:100D7000016841F480410160006800F48040009007
:100D80000648001F016841F080510160006800F0D2
:100D900080500090072002B000F030B84438024084
:100DA000002809DB00F01F0201219140400980006A
:100DB00000F1E020C0F8001170470000F0B40E4BC5
:100DC0001B680C46C3F30223C3F10705042D00D9A9
:100DD0000425191D072901D2002300E0DB1E01268E
:100DE00006FA05F1491E214099409E40761E1640A4
:100DF0003143F0BC03F0EABA0CED00E0064900F024
:100E0000070208684FF6FF03184040EA0220034A31
:100E100010430860704700000CED00E00000FA0588
:100E20002DE9F0470E46050065D0DFF81481D8F8AB
:100E30000000F7B200F00F00B04207D288F800704F
:100E4000D8F8000000F00F00B04254D128683D4CA3
:100E5000810712D5400703D5206840F4E050206098
:100E60002878000703D5206840F46040206020689F
:100E7000A96820F0F000084320602878C0072DD032
:100E8000304968680839012812D0022813D0032895
:100E900011D00968890700292DDA216821F00301A2
:100EA00001432160FFF71AFF814641F2883A0EE0C4
:100EB00009688903EFE709688901ECE7FFF70EFF8E
:100EC000A0EB0901514502D90320BDE8F087206855
:100ED000696800F00C00B0EB810FEFD1D8F800107A
:100EE000404601F00F01B14207D90770006800F0D9
:100EF0000F00B04201D00120E7E72878400705D570
:100F00002068E96820F4E050084320602878000752
:100F100006D52068296920F4604040EAC1002060BD
:100F200000F038F82168084AC1F30311515CC84049
:100F30000649086006480068FFF7F8FE0020C4E78D
:100F4000003C024008380240CD5A0008480000200A
:100F5000400000200448054900680968044AC1F3BC
:100F60008221515CC8407047480000200838024088
:100F7000DD5A00080448054900680968044AC1F3BD
:100F80004231515CC8407047480000200838024098
:100F9000DD5A0008224810B5006810F00C02214804
:100FA00015D04110042A11D01D4C241F082A0FD03F
:100FB0000C2A0CD12268236802F03F025B0221D583
:100FC0002068C0F38810A0FB010120E0084610BD96
:100FD0002268236802F03F025B0205D52068C0F357
:100FE0008810A0FB010104E02168C1F38811A1FB76
:100FF00000010023FFF702F92168C1F30141491CF8
:1010000049000AE02168C1F38811A1FB0001002317
:10101000FFF7F4F82168C1F30271B0FBF1F010BDE5
:10102000083802400024F4002DE9F84F0546DFF8A7
:1010300028B30078ABF10407C007A7F1040451D02E
:10104000DBF800105846C1F3810101290FD0016877
:10105000C1F38101022902D13968490207D400682D
:10106000C0F38100032809D13868400206D5206802
:10107000800337D56868002872D033E06868B0F51F
:10108000803F10D0B0F5A02F206810D020F4803021
:101090002060206820F4802020606868A8B1FFF7F5
:1010A0001DFE06460DE0206840F48030F4E740F471
:1010B00080202060F7E700BFFFF710FE801B642848
:1010C00078D820688003F7D50CE0FFF707FE0646C6
:1010D00005E000BFFFF702FE801B6428F0D82068FF
:1010E0008003F7D42878DFF8749280074FF0000A65
:1010F00046D5DBF80010584611F00C0F0FD00168F0
:10110000C1F38101022902D13968490207D500687B
:10111000C0F38100032809D13868400206D4206852
:10112000800715D5E86801281AD111E0E868C0B138
:101130000120C9F80000FFF7D1FD064605E000BF19
:10114000FFF7CCFD801B0228BAD820688007F7D5AE
:101150002068296920F0F80040EAC10020600FE013
:10116000F7E0C9F800A0FFF7B9FD064605E000BFAB
:10117000FFF7B4FD801B02281CD820688007F7D435
:101180002878000727D5DFF8D0817548696908F10C
:101190006C0881B101210160FFF7A0FD064604E063
:1011A000FFF79CFD801B022804D8D8F800008007B8
:1011B000F6D510E089E0C0F800A0FFF78FFD0646E5
:1011C00005E000BFFFF78AFD801B02287DD8D8F814
:1011D00000008007F6D42878400769D55E484FF0B4
:1011E000000838300068C0000BD45B483830016814
:1011F00041F08051016000684FF0010800F080501C
:101200000090584E3068C00511D4306840F48070AA
:101210003060FFF763FD009006E000BFFFF75EFD62
:101220000099401A022850D83068C005F6D54A4EB9
:10123000A868683601280FD00528306810D020F043
:1012400001003060306820F004003060A868B8B158
:10125000FFF744FD00900FE0306840F00100F4E734
:1012600040F004003060F7E7FFF738FD0099411ABD
:1012700041F28830814264D830688007F4D50EE0AE
:10128000FFF72CFD009007E0FFF728FD0099411AB9
:1012900041F28830814254D830688007F4D4B8F1E4
:1012A000000F05D02C483830016821F080510160D2
:1012B000A869A8B3DBF80010C1F38101022948D066
:1012C0000228C9F860A005D000E03AE0FFF706FD6B
:1012D000054639E0FFF702FD064604E0FFF7FEFC95
:1012E000801B02282DD820688001F7D4F5E907017A
:1012F0000843E9681C4A490802EB0141AA6841EA2F
:1013000082110843297C40EA0160297D40EA01708E
:1013100038600120C9F86000FFF7E0FC054606E0F0
:1013200015E000BFFFF7DAFC401B022809D820684F
:101330008001F7D50BE000BFFFF7D0FC401B02286F
:1013400002D90320BDE8F88F20688001F4D4002082
:10135000F8E70120F6E700000838024000004742A5
:10136000800E4742007000400000FFFF05484168C2
:10137000491C4160C82903D101210170002141604D
:10138000704700003000002010B5401EB0F1807F93
:1013900001D3012010BD4FF0E02460610F216017E0
:1013A00003F014F80020A06107202061002010BD88
:1013B00010B5FFF7DBFF10BD70B590F83C20012A97
:1013C00032D0012480F83C40022280F83D2003689E
:1013D0005A689D6822F070060A6832435A60134BBF
:1013E00002689A4214D0B2F1804F11D0104B9A4249
:1013F0000ED0104B9A420BD00F4B9A4208D00F4B95
:101400009A4205D00E4B9A4202D00E4B9A4204D11A
:10141000496825F080031943916080F83D40002120
:1014200080F83C10084670BD022070BD00000140ED
:101430000004004000080040000C0040000401408F
:10144000004001400018004010B5040003D094F89B
:101450003D0010B107E0012010BD002084F83C00E1
:10146000204600F00DF8022084F83D00211D206880
:1014700002F068FB012084F83D00002010BD000050
:1014800008B50068B0F1804F08D10548016841F007
:1014900001010160006800F00100009008BD00003B
:1014A0004038024070B5044690F83C00012817D03F
:1014B000012584F83C50022084F83D0020688268B1
:1014C00022F0770222F47F4282600868502830D0F0
:1014D0000DDC20284DD005DC98B310283BD148E026
:1014E000022070BD302844D0402834D139E0602833
:1014F00028D0702806D0B0F5805F2CD0B0F5005F02
:1015000029D10AE0CB68D1E90121206802F08BFBE8
:101510002068816841F0770109E0CB68D1E90121B9
:10152000206802F080FB2068816841F4804181607E
:1015300011E0CA684968206802F08DFC50212068DB
:1015400007E016E0CA684968206802F0D5FC60210F
:10155000206802F072FB84F83D50002084F83C00C3
:1015600070BDCA684968206802F075FC4021206897
:10157000EFE7226801461046EBE700002DE9F04155
:10158000044690F83C000D4601283DD0012684F821
:101590003C60022084F83D00AAB3042A46D02068AB
:1015A000082A55D0D5E90027E968036A23F4805357
:1015B0000362D0F81CC0036A2CF4407C4CEA072775
:1015C0004FF6FF7C27F470470CEA013139434FF4A2
:1015D000204723F4204307EA02321A43C161026222
:1015E0002068C16921F44061C1612068C169AA68AD
:1015F00041EA0221C0F81C1084F83D60002084F804
:101600003C00BDE8F08101E00220FAE7D5E90012D4
:10161000EB68206802F030FC2068816921F00C0141
:10162000816120688169AA6811430FE0D5E9001241
:10163000EB68206802F072FC2068816921F4406147
:10164000816120688169AA6841EA02218161D3E74A
:10165000D5E9002C2F7B016A21F480710162C169F8
:10166000036A21F0030141EA0C0121F0F00C390773
:101670004FF420674CEA116123F4206307EA022249
:101680001A43C16102622068C16921F00C01C16185
:101690002068C169AA681143ACE710B5040003D003
:1016A00094F83D0010B107E0012010BD002084F83F
:1016B0003C00204600F00CF8022084F83D00211D7B
:1016C000206802F03FFA012084F83D00002010BDA0
:1016D00010B586B0044614216846FEF7ECFD1649A5
:1016E0002068884226D115480021026842F0020293
:1016F0000260006800F0020005901048103802688F
:1017000042F001020260006800F0010005904020F4
:1017100000900220CDE90101CDE903106946084897
:10172000FFF702FA002211461D20FFF747FB1D209C
:10173000FFF736FB06B010BD000400404038024001
:101740000000024010B50268044631B1042908D0F7
:1017500008291AD00C2908D11BE0D06840F00200FB
:1017600002E0D06840F00400D0600122206802F05E
:101770004DFA2068816801F00701062903D001684D
:1017800041F001010160002010BDD06840F0080068
:10179000EAE7D06840F01000E6E7000010B586B038
:1017A000044614216846FEF786FD2068B0F1804F9C
:1017B00016D10C480021026842F001020260006864
:1017C00000F0010005904FF4004000900220CDE9A8
:1017D00001010120CDE9031069460348FFF7A4F990
:1017E00006B010BD303802400000024070B504461B
:1017F00090F83C000D4601280DD0012684F83C608D
:10180000022084F83D0042B1042A18D0082A2AD0C8
:101810000C2A4DD139E0022070BD206802F016FA82
:101820002068816941F0080181612068816921F0A7
:1018300004018161206881692A69114311E02068EF
:1018400002F034FA2068816941F400618161206806
:10185000816921F480618161206881692A6941EA96
:101860000221816124E0206802F056FA2068C169F3
:1018700041F00801C1612068C16921F00401C16122
:101880002068C1692A69114311E0206802F078FAE2
:101890002068C16941F40061C1612068C16921F417
:1018A0008061C1612068C1692A6941EA0221C16180
:1018B00084F83D60002084F83C0070BD10B5040041
:1018C00003D094F83D0010B107E0012010BD0020C6
:1018D00084F83C00204600F00CF8022084F83D001B
:1018E000211D206802F02EF9012084F83D0000201F
:1018F00010BD704710B504460068012202F086F959
:101900000B492068884202D00A49884203D1416CC1
:1019100041F4004141642068816801F00701062913
:1019200003D0016841F001010160002010BD0000FA
:10193000000001400004014070B5044690F83C00EE
:10194000012812D0012584F83C50022084F83D0083
:10195000204602F03DFA01004FF0000007D084F865
:101960003D5084F83C00012070BD022070BD21680C
:10197000CA6822F04002CA602168CA6822F4804224
:10198000CA6084F83D5084F83C00002070BD70B5FA
:10199000040004D094F83900002510B106E00120BD
:1019A00070BD84F83850204600F022F8242084F8D6
:1019B00039002068C16821F40051C160204602F05E
:1019C000C9FA2068016921F49041016120684169E8
:1019D00021F02A0141612068C16841F40051C160D1
:1019E000E563202084F8390084F83A00002070BDB7
:1019F00010B586B0044614216846FEF75CFC134916
:101A00002068884220D112480021026842F4003246
:101A10000260006800F4003005900D48103802683C
:101A200042F001020260006800F0010005900C2005
:101A300000900220CDE901010320039007200490CB
:101A400069460448FFF770F806B010BD0044004036
:101A50004038024000000240FEE7000015489FEDBC
:101A6000140ADFED160A80ED000A9FED130A80EDDF
:101A7000010AB7EE000A80ED020A80ED030A143075
:101A8000B3EE040AC0ED000A80ED010A9FED0C0AD6
:101A900080ED020A80ED030A1430C0ED000ADFED8C
:101AA000090AC0ED010A80ED020A80ED030A7047C1
:101AB0000000F04250010020000020430000BE4220
:101AC00000000000000091432DE9F84F01F0A6F856
:101AD0000746002501F060FAD84CAB46BC46A4F896
:101AE00018B049F29008A783A7EB08074FF4805A73
:101AF0004FF4F07140F2134240F2034341F21349B4
:101B000041F2040E4FF4A070C44575D056DC45F286
:101B10001038ACEB0807C4456FD027DC41F22657DC
:101B2000ACEB0703BC4569D012DC41F20557ACEBC6
:101B30000703BC4574D006DCBCF1990F71D0BCF52D
:101B4000AA7F6FD186E00C2B6DD01B2BF9D18BE0D7
:101B50005B2B69D0DC2B68D0A3F530632D3B77D0AD
:101B6000A3F2E243B3F5005FEBD18BE042F2794898
:101B7000A7EB080C47456CD00FDCF82F50D007F6C8
:101B8000073741F20212B7F5005772D00B2F71D010
:101B9000A7F570677A3FD4D191E0BCF10A0F6AD003
:101BA000BCF10D0F68D0ACF5006CBCF1A80C71D085
:101BB000ACF5007CBCF5937CC3D191E0B7F52C7FEC
:101BC00069D01CDCB7F5267F72D00ADCA7F5007758
:101BD000723F6ED01E2F23D0232F69D0252F21D105
:101BE000A4E0A7F50077993F72D0082F71D00C2F91
:101BF0006FD00F2F16D1B0E076E04DE03DE0B7F5A5
:101C00007E7F0CD012DCA7F50077B13F72D08742FF
:101C100071D0A7F58077453F6ED0012F02D1BAE091
:101C200071E06AE077E01BE0A7E08BE06FF4DC5046
:101C300038186FD0A0F50060F43803D004281AD00B
:101C4000504568D141F208006083B0217C481EE015
:101C50007BE038E041F2020060839C21794816E085
:101C600003226283784D28E0774D6283093506268A
:101C7000A2E04DE01EE093E08BE0724D62839C3564
:101C80000C2699E06F48A4F81AA09C21A83003F014
:101C900064F891E01EE069E06B4D40F613626283E8
:101CA0002D1F25E0654A0A321180911E088083E0CD
:101CB00032E050E0644D6383ED1C0326F2E762835B
:101CC00090216248E3E7614D62839035412673E0DD
:101CD00045E025E05D4DA4F81A90D13512266BE061
:101CE00041F20342628301E0A4F81A90564DAD1E02
:101CF0000226D7E73CE044E046E0514DA4F81A90B4
:101D0000DB3D1D26CEE7A4F81AE0D8215048BEE7F7
:101D1000628307E01CE08CE04FF48850608301E0B0
:101D2000A4F81AA04A48CC21D830B0E74348444D23
:101D30000A3063834FF4C871BE3D01801E26801EA9
:101D4000F02138E040F213500BE041F2174008E078
:101D5000A4F81A9006E0638304E0628302E041F293
:101D600003606083384DAD1D032625E0A4F81A906A
:101D7000334D6283A03D65261EE06283354D4526C6
:101D800090E740F20742F8E72D4D63833B3D3B2649
:101D900088E7638300E062832E4D45352B2681E77B
:101DA0002748A4F81AA0C021B03002F0D6FF23487B
:101DB0004FF4C8710A300180608BC0F30030E083BB
:101DC0006DB124480921703002F0A0FF3146284649
:101DD00002F09CFF1C4806210F3002F097FF002004
:101DE00001F0E4F9002000F0D3FAA08BA0F5144133
:101DF00088391CD184F806B04FF6E072084600F02E
:101E000093F80021084600F0C7FFA0F57F411F3975
:101E10000DD106208DF80000012269463A2000F01D
:101E20004FFB608B20F0100060830120A071BDE8A3
:101E3000F88F024859460830BDE700000000002036
:101E4000405700083E540008A85100088255000879
:101E5000B0580008545A000800F0F800000201F0E1
:101E6000FC0140EAC10040EAD20070472DE9F84F7A
:101E70009B460B9D88468146F0283FDAB8F5A07F47
:101E80003CDA05EB450109EB4100012836D408EBAB
:101E9000C500012832D4002402EB820A01E0052C9F
:101EA00028D01C480AEB04010026475CF8070CD038
:101EB000012D02D0CDF800B00DE008EB060001B214
:101EC00009EB040000B25A4621E00A9959450CD0AA
:101ED000012D15D0009106FB058001B204FB059091
:101EE0002B4600B21A4600F0C3F8761C7F0876B283
:101EF000082EDBDB641C64B2062CD0DBBDE8F88F57
:101F000008EB060001B209EB040000B20A9A00F0E7
:101F10000BF8EAE7BD51000808B50093134601220B
:101F200000F0A6F808BD00002DE9F0410D460600BE
:101F300017461CD4002D1ADB0E4CB4F90C00864257
:101F400015DAB4F90E00854211DAA07918B11046FD
:101F500002F0C2FE07462B4632461946104601F0F3
:101F60007DF83946E08CBDE8F04101F06FBBBDE87B
:101F7000F0810000000000202DE9FC4107461446D6
:101F8000012000EB440002B20D46081B01B21E46C0
:101F90003846FFF7C1FF0020CDE9000603232246A3
:101FA0002946384600F002F8BDE8FC812DE9FF5FC4
:101FB0008146C2F1010006B2C2EBC23040000127E7
:101FC00088460FFA80FB00251446DDF838A04AE069
:101FD000002E08DB0BF102000FFA80FB641E06EBFB
:101FE0000B0024B206B2BF1C6D1C3FB2F01906B242
:101FF00003982DB2C00719D00AEB4400401C02B26E
:10200000A8EB040001B209EB050000B20F9BFFF73B
:1020100083FF0AEB4500401C02B2A8EB050001B2A9
:1020200009EB040000B20F9BFFF776FF03988007CF
:1020300019D50AEB4400401C02B2A8EB040001B21F
:10204000A9EB050000B20F9BFFF766FF0AEB450006
:10205000401C02B2A8EB050001B2A9EB040000B2DB
:102060000F9BFFF759FFA542B2DBBDE8FF9F0000C1
:102070002DE9F04FDFF8EC8285B0074698F80600AE
:10208000DDF838A01C4616460D4618B1504602F041
:1020900023FE8246002E03DA704206B2B81B07B256
:1020A000B81900B2002F00DA0027B8F90C108842E6
:1020B00000DD0846C01B0FFA80F9002C03DA6042ED
:1020C00004B2281B05B2281900B2002D00DA002541
:1020D000B8F90E10884200DD0846401B04B22819EA
:1020E000401E03B207EB0900401E02B229463846E3
:1020F00000F0B4FF9C494FF48030086001019B4818
:10210000816198494FF0E065C98C85610A0AC9B2BE
:10211000954B4FF0876B5E46C3F800B0944B870138
:102120001F60D3079B0D02F0040C43EA0C2302F05E
:10213000800C43EA4C03836102F0080302F0100CA8
:1021400043EA4C0C102303EA52084CEA080C02F054
:1021500040084CEA081CDFF81082C8F800C0DFF81D
:1021600010C202F002029201CCF800205A038261F0
:102170008261826182618261826182618261826147
:1021800082618261826182610222826182618561F3
:1021900045462E6065462F60CD07AD0D01F0040663
:1021A00045EA062501F0800645EA4605856101F00D
:1021B000080501F0100645EA460503EA51063543D5
:1021C00001F0400645EA06154646356001F0020179
:1021D00065468901296011048161816181618161A4
:1021E00081618161816181618161816181618161DF
:1021F00081618261826183614C4502DD20464C46EB
:1022000081464FEA1A250AF0FF0386E0E807800DB1
:1022100005F0040140EA012005F0800140EA410098
:10222000049005F0080005F01001102740EA410075
:1022300007EA5501084305F0400140EA0110039008
:1022400005F0020080010290D807800D03F0040120
:1022500040EA012003F0800140EA4100019003F0D0
:10226000080003F0100140EA410007EA5301084367
:1022700003F0400140EA011000903D4E03F00200DF
:10228000CC464FF4000A4FEA801E00BF37484FF09B
:10229000E068C0F81880344FC7F800B0C6F800A056
:1022A0000499816103993960029931604FF40031DA
:1022B000816181618161816181618161816181610E
:1022C0008161816181618161816182618261C0F826
:1022D0001880C7F800B0C6F800A0DDF80480C0F888
:1022E0001880DDF80080C7F80080C6F800E0816142
:1022F00081618161816181618161816181618161CE
:10230000816181618161816182618261ACF1010CD5
:102310000FFA8CFCBCF1000FB8D1201EA4F101040F
:1023200024B23FF773AF1048012101600D48817E50
:10233000C90707D0818BA1F5A852263A0FD1817821
:10234000C9070CD0C189808905B0491EBDE8F04F8E
:10235000401E0BB202B20021084600F07FBE05B05D
:10236000BDE8F08F00000020180402400000024089
:102370001808024008B5002100900448B0F90E305A
:10238000B0F90C200846FFF773FE08BD00000020DE
:102390002C4A08B5538BC3F3003141401046D1831A
:1023A000808BDB0721D05279B2B1A0F50342473AC6
:1023B00006D0A0F5A442523A02D031B1082005E07F
:1023C00009B1062002E0022000E00A208DF800009A
:1023D00001216A46084605E009B1212000E02020DD
:1023E0000022114601F05AFE08BD49F22523C21A07
:1023F00098421BD00DDCB0F5AA7F17D0A0F5A150F4
:10240000B0F5804017D0A0F27330B0F5005F0BD16B
:1024100011E0012A0AD0A2F58072013A0BD0A2F293
:10242000E312B2F5005F06D0612008E0132040EA15
:102430008101072003E041F0020140F2014001F078
:1024400005F908BD000000200FB41B487CB507AAA1
:10245000069901F0A9FF0026174D184C26E00A2A1C
:102460001DD00D2A21D02178E08ACDE90001A38A70
:10247000B4F91210B4F91000FFF7F8FC2078228AA2
:1024800000EB400102EB410109B22182E27862B126
:10249000A0EB8000F02202EB4000884205DA608A5F
:1024A000617800EBC100608226826D1C2A78002AC8
:1024B000D5D17CBC5DF814FB50000020000000204A
:1024C00013460A46194601F0E9BD00002DE9FF4F09
:1024D00081B0DFF8608416460E9AB8F8267003FBC8
:1024E00002F14FF0000B98F805009A460CB25D46D9
:1024F00020B998F81A00C00700D02E270299881832
:10250000401E019903B201EB0A00401E02B2DDE950
:10251000010100F0A3FD60E3807EC0070FD10198A8
:10252000DFF81084284481B2B8F8220001F08EF858
:102530000298584481B2B8F8240001F087F8FE49A7
:102540004FF480300860DFF8F49301014846C9F881
:1025500018104FF0E0633A0AF9B2C9F81830DFF802
:10256000D8C34FF08763CCF80030F54B4FF4000C24
:10257000C3F800C04FEAC27C4FEA9C5C02F004083A
:102580004CEA082C02F080084CEA480CC0F818C04D
:1025900002F0080C02F010084CEA480C4FF0100E44
:1025A0000EEA52084CEA080C02F040084CEA081CFB
:1025B000DFF88483C8F800C002F0020292011A60BA
:1025C0004FF4003282618261826182618261826144
:1025D00082618261826182618261826182614FF087
:1025E0000208C0F81880C0F818804FF0E0628261DD
:1025F000DFF844C34FF08762CCF800204FF40002AC
:102600001A60CA07920D01F0040C42EA0C2201F094
:10261000800C42EA4C02826101F0080201F0100CC9
:1026200042EA4C020EEA510C42EA0C0201F0400C64
:1026300042EA0C12DFF800C3CCF8002001F00201DE
:10264000890119604FF4003181618161816181618B
:10265000816181618161816181618161816181616A
:102660008161C0F81880C0F81880C0F818E00168CF
:1026700021F47C110160B04818380168B14A11405A
:102680000160AF481838016821F440410160A94A4F
:10269000508B410670D4C00775D1908BA0F5905136
:1026A000893970D001234846C9F818304FF4803E6C
:1026B000C9F818E0C9F818E0C9F818E0C9F818E036
:1026C000C9F818E0C9F818E0C9F818E0C9F818E026
:1026D000C9F818E0C9F818E0C9F818E0C9F818E016
:1026E000C9F818E0C0F818E0C0F818E00169DFF890
:1026F00050C2ACF1080CDCF8001001698E490839B1
:10270000D1F80080D1F80080D1F80080D1F80080A5
:10271000D0F81080836183618361C0F818E0C0F84D
:1027200018E0C0F818E0C0F818E0C0F818E0C0F8E9
:1027300018E0C0F818E0C0F818E0C0F818E0C0F8D9
:1027400018E0C0F818E0C0F818E0C0F818E0C0F8C9
:1027500018E0C0F818E0D0F81080DCF800C0D0F81D
:1027600010C000BFD1F800C0D1F800C0D1F800C03F
:102770000968016983618361908BA0F5A8511139C3
:102780002BD05DE0FFE701234846C9F81830190453
:10279000C9F81810C9F81810C9F81810C9F8181095
:1027A000C9F81810C9F81810C9F81810C9F8181085
:1027B000C9F81810C9F81810C9F81810C9F8181075
:1027C000C9F81810C9F81810816101695C49083905
:1027D0000968016958490839C4E701234846C9F81E
:1027E00018301904C9F81810C9F81810C9F81810C9
:1027F000C9F81810C9F81810C9F81810C9F8181035
:10280000C9F81810C9F81810C9F81810C9F8181024
:10281000C9F81810C9F81810C9F8181081610169B1
:10282000474908390968016943490839D1F800C0A6
:10283000D1F800C0D1F800C00968016983618361E3
:102840004FF00109002C74D03A48428BD0067BD55A
:102850003A49C1F818904FF48030886188618861E6
:102860008861886188618861886188618861886120
:1028700088618861886188610B69DFF8C4E0C3F30F
:10288000402CAEF1080EDEF8003003F080034CEA75
:102890009313D1F810C00CF4806C43EA1C2C264B27
:1028A000083BD3F8008008F008084CEA080CD3F87D
:1028B000008008F020084CEA580CD3F8008008F09B
:1028C00010084CEA480CD3F8008008F480684CEA01
:1028D000181CD1F8108008F480784CEA580CCDF818
:1028E00000C0C1F81890C1F81890C1F8189088611C
:1028F0008861886188618861886188618861886190
:10290000886188618861886188618861D1F810C0B8
:10291000CCF34028DEF800C00CF0800C48EA9C1C88
:10292000D1F8108008F480684CEA182CD3F80080A5
:102930000BE022E1000000201804024000000240E9
:10294000180802403FF0CFFF6AE008F008084CEAA0
:10295000080CD3F8008008F020084CEA580CD3F893
:10296000008008F010084CEA480CD3F8008008F406
:1029700080684CEA181CD1F81080C1F8189008F44F
:1029800080784CEA5808C1F81890C1F8189088610E
:1029900088618861886188618861886188618861EF
:1029A0008861886188618861886188610869C0F38D
:1029B000402CDEF8000000F080004CEA9010D1F8C6
:1029C00010C00CF4806C40EA1C20D3F800C00CF05E
:1029D000080C40EA0C00D3F800C00CF0200C40EAD0
:1029E0005C00D3F800C01B680CF0100C40EA4C00EF
:1029F00003F4806340EA13100B69C1F8189003F4E4
:102A0000807340EA5300C1F81890510702D541463F
:102A1000009A02E0024641460098FFF71DFA98E04E
:102A20007848C0F818904FF48031816181618161EC
:102A30008161816181618161816181618161816186
:102A400081618161816181610369DFF8BCE1C3F368
:102A5000402CDEF8003003F080034CEA9313D0F8EA
:102A600010C00CF4806C43EA1C2C684BD3F8008037
:102A700008F008084CEA080CD3F8008008F0200899
:102A80004CEA580CD3F8008008F010084CEA480CC7
:102A9000D3F8008008F480684CEA181CD0F8108045
:102AA000C0F8189008F480784CEA580CC0F81890D8
:102AB000C0F818908161816181618161816181616A
:102AC00081618161816181618161816181618161F6
:102AD00081610169C1F34028DEF8001001F0800136
:102AE00048EA9111D0F8108008F4806841EA182172
:102AF000D3F8008008F0080841EA0801D3F8008004
:102B000008F0200841EA5801D3F800801B6808F05B
:102B1000100841EA480103F4806341EA1311036994
:102B2000C0F8189003F4807341EA5301C0F818907C
:102B300041EA0C20110703D5010A41EA002080B2C6
:102B4000510706D500F4FC6141EAD02141EAC020DA
:102B500080B22F4A917941B1202320F03F0103EA4E
:102B600050131943C0F34400084326F8020B641EB7
:102B7000907E24B280073FF565AE6D1C2DB25545A1
:102B800008DB0BF101000E9900250FFA80FB8B4545
:102B900000DBAB461B48C0F818901C4A0832C2F84C
:102BA0000090016821F47C110160184910390B680C
:102BB000184A13400B60144A103A136823F4404338
:102BC0001360036843F4A81303600868124B1843AA
:102BD0000860106840F4804010600D48002C3FF7FA
:102BE0009BAC817EC90709D1C1898089491E0BB27E
:102BF000401E02B20021084600F030FA05B0002065
:102C0000BDE8F08F000002401008024010040240AE
:102C1000000000203FF0CFFF4005100038B5002134
:102C2000084600F0C3F845F2084188426FD045F2EB
:102C3000204188426BD0A0F50941893912D000218A
:102C4000672000F0B3F8A0F58E4147390DD0A120E0
:102C500000F07EF981B246F20110814208D141F6BE
:102C6000631038BD41F2892038BD48F2473038BD85
:102C7000A1F57F4041F22654FF3851D0BF2000F02B
:102C800074F981B248F257308142F0D049F2814064
:102C90008142ECD041F211508142E8D0A01F814224
:102CA000E5D0A1423CD041F281508142DFD0B1F564
:102CB000A05F2DD0D42000F04BF980B245F2103146
:102CC00088424AD0D72000F043F980B248F231015F
:102CD000884242D0EF2000F048F980B249F2273113
:102CE00088423AD0FE2000F033F9C0F30F2042F2C0
:102CF0005301884231D0042000F02AF9C0F3074282
:102D000080B248F252534AF6114122B106E024E063
:102D100046F6140038BDB0F5004F03D0A04215D1DF
:102D2000204638BD1BA00322006800906946B920E8
:102D3000FFF7C6FB0021D02000F038F8C0B2992878
:102D4000EFD090280BD149F2900038BD984202D1C3
:102D500047F2897038BD884201D1084638BDD3207A
:102D600000F0F6F880B2010A9329F7D09429F5D043
:102D70009829F3D07729F1D01629EFD0D328EDD0B8
:102D8000A0F55341D339E9D0BDE8384000210846C9
:102D900000F00CB8FF8357001CB5012213460092C7
:102DA00001AAFFF793FBBDF804001CBD2DE9F05FFD
:102DB000054661480C46007908B900F0EDF85F4E11
:102DC0004FF480303060DFF878A100015246CAF835
:102DD00018004FF0E06B290AEBB2CAF818B04FF0B8
:102DE000876CC6F800C0574D4FF40009C5F8009035
:102DF000C807800D01F0040740EA072001F08007B2
:102E000040EA4700906101F0080001F0100740EA35
:102E10004700102707EA510840EA080001F040087F
:102E200040EA0810306001F0020080012860780359
:102E3000906190619061906190619061906190610A
:102E400090619061906190619061022191619161C6
:102E5000C2F818B0C6F800C0C5F800904FEAC37CAD
:102E60004FEA9C5C03F004084CEA082C03F080084D
:102E70004CEA480CC2F818C003F0080C03F0100824
:102E80004CEA480C07EA53084CEA080C03F04008E7
:102E90004CEA081CC6F800C003F002039B012B603B
:102EA000906190619061906190619061906190619A
:102EB0009061906190619061906191619161976181
:102EC000106820F47C1010601C4D183D28681E4FBF
:102ED000384028601B4E183E306820F44040306077
:102EE000012001F003FF00BF01F0EAFF641E64B29D
:102EF000002CF9DA0122CAF81820104B1A60DAF80F
:102F0000002022F47C12CAF800202A683A402A6085
:102F1000326822F440423260DAF8002042F4A8120B
:102F2000CAF800202968094A11432960316841F430
:102F300080413160BDE8F09F00000020180402408D
:102F400000000240180802403FF0CFFF400510008B
:102F500070B505460021FFF729FF044601212846E8
:102F6000FFF724FF40EA044070BD70B5054600211C
:102F7000FFF71CFF044601212846FFF717FF06460E
:102F800002212846FFF712FF0146200640EA0620EC
:102F900040EA112070BD000070B52A48012303717A
:102FA0002948016821F47C11016028490A68284CED
:102FB00022400A60274A146824F4404414600468DC
:102FC00044F4A81404600C68234D2C430C6014686E
:102FD00044F480441460046824F00304641C046016
:102FE000046824F00C04241D0460046824F4407474
:102FF00044F4807404600C6824F00304641C0C60C6
:10300000116821F00C01091D1160104918310B6085
:103010008361022383610F4C18342360322001F056
:1030200065FE4FF400302060642001F05FFE2360F5
:10303000642001F05BFEBDE870400021B02000F08C
:1030400005BB000000000020000002400004024018
:103050003FF0CFFF00080240400510002DE9F84383
:1030600006464E4817460D46828B01461C46897817
:10307000A2F51343273B0DD1022902D0032905D025
:1030800008E0203520342DB224B203E0203620376A
:1030900036B23FB2A2F5A853263B0FD1C9070DD0D7
:1030A000B91B0AB2611B09B209B11AB106E0641C6E
:1030B00024B203E07A18611A17B20CB2817EC907F4
:1030C00036D0F9B200918046C7F30723C6F3072133
:1030D000F2B290F828000F4600F0D1FFE0B2009065
:1030E000C4F30723C5F30721EAB298F82C000C4675
:1030F00000F0C5FF98F80500002817D0B8F81C00AC
:10310000652813D18DF800708DF801606A460221A0
:10311000B8F8220000F0C2FF8DF800408DF8015091
:103120006A460221B8F8240000F0B8FFBDE8F88331
:103130008046B1B2408C00F089FAA9B2B8F82400F8
:1031400000F084FABE4201D1A542EFD098F81A00EF
:1031500080060CD598F80200C00704D045EA042088
:1031600004B2254603E046EA072006B23746B1B26C
:10317000B8F8280000F06AFAA9B2B8F82C0000F0FC
:1031800065FAB9B2B8F82A0000F060FAA1B2B8F84E
:103190002E00BDE8F84300F059BA000000000020FE
:1031A000014A108251827047000000202DE9FC473F
:1031B000C64C00F003022146A270B1F90A30D507CF
:1031C000B1F90810002D01D01D4600E00D46A58183
:1031D00000D11946E18132B1012A06D0022A7BD002
:1031E000032A05D17AE0482100E028218DF800105B
:1031F000618BCA0505D59DF8002082F080028DF80C
:1032000000208A0505D59DF8002082F040028DF847
:1032100000200A0505D59DF8002082F008028DF8EF
:103220000020AA4ACD074FF02003928B4FF02201D5
:103230004FF0080974D0A2F5D045143D2FD041F6C7
:10324000631349F2814541F211569A4203D0AA42D2
:1032500001D0B24244D19DF80000010603D540F0F0
:1032600001008DF80000C0B2410603D540F0020015
:103270008DF800009A4203D100F03F008DF8000065
:10328000AA4203D100F02F008DF80000B2425DD1B8
:1032900000F0EF0040F0C0008DF8000056E09DF80F
:1032A0000000402101EA500103EA500200F028002A
:1032B0008DF80000002011438DF8040041F0020059
:1032C0008DF805003B208DF8060001AA0321B620E9
:1032D00000F0E4FE3AE0FFE7982187E7F82185E770
:1032E00063797BB3022363840625A584E1840421EA
:1032F00023856185A585A4F82E90652A11D0A2F5B5
:10330000A44052382CD19DF8000040F002008DF806
:103310000000C10624D540F004008DF800001FE035
:103320002BE09DF80010CA0603D481F081018DF8CE
:103330000010C2074FF082004FF0800103D060847C
:10334000A1840DE002E06184A08409E02A202B2101
:103350006084A1842C22E28420856085A185E1859A
:10336000607908B1162000E036206A46012100F09D
:1033700095FE9DF80000208483E047F2937C4FF493
:1033800000752126A801A2EB0C074FF48078624556
:103390003ED006DCB2F5AA7F1FD0A2F5A847203F99
:1033A00007E007F26D47B7F5005731D0A7F504578E
:1033B000E33F6FB36384A684E184502121855121CA
:1033C00061855221A1855321E1859DF8001000EA15
:1033D000012040F41C5160203CE03720208536203D
:1033E00060853920A0853820E0856384A684E18447
:1033F0009DF8000005EA800108EA80000143A2F57B
:103400008070393802D02820014329E02720FBE7CB
:10341000658440F20121A184491CE1844FF40471C8
:103420002185491C6185491CA185491CE1859DF8C0
:103430000010A2F5134300EA01214FF4D440263BCB
:1034400003D0A2F5A843203B01D14FF454500143CF
:103450004FF4806000F0FAF89DF8001008EA81014E
:10346000012000F0F3F89DF8001009EA9100090727
:1034700001D540F4805040F030012184032000F059
:10348000E5F8A078C0070ED0608B40050BD4608CA7
:10349000A18C6184A084208DA18D2185A085608D63
:1034A000E18D6185E085E0890021401E03B2A0899D
:1034B000401E02B20846FFF7D1FD0022B4F90A10FF
:1034C000104600F005F8BDE8FC8700000000002071
:1034D0002DE9FC415C4E174649F22733B28B044676
:1034E0009A4206D1B078022801D0032801D12034B5
:1034F00024B27089001B401A00B29A4201D12030D8
:1035000000B24B429F4201DD8F4200DB0027E319EE
:103510001DB2002F01DA6B181DB263185B1E96F8FE
:103520001AC01BB25FEACC7C49D0220A8DF8002079
:103530008DF801400A0A8DF802208DF80310010A67
:103540008DF804108DF80500707908B10E2000E0A8
:1035500033206A46062100F0A1FD280A8DF80000FC
:103560008DF80150707908B1142000E037206A46C8
:10357000022100F093FD7079A8B148F2473037B1CD
:10358000B18B814201D1022102E0082100E000213B
:103590008DF80010B18B814201D1182000E001208C
:1035A0006A46012107E0002F07D1B07EC00704D092
:1035B00000221146132000F071FDBDE8FC81224875
:1035C00049F22527D61BC18BBA4241F0020022D016
:1035D0000FDCB2F5AA7F1ED0A2F5A152B2F580424F
:1035E00025D0A2F26332B2F500520ED0102A0BD1D0
:1035F0001DE0012E0FD0A6F58076013E17D0A6F271
:10360000E316B6F5005F12D00146612000F01EF807
:10361000A9B26A2013E099B2312000F017F8A1B2E4
:10362000322000F013F8281B81B2332007E0014656
:1036300040F2014000F00AF8A9B240F20440BDE8AF
:10364000FC4100F003B800000000002001F0B6BC0F
:10365000F0B587B014216846FCF72DFE26480024FB
:10366000016841F004010160016801F00401059165
:10367000016841F080010160016801F0800105915D
:10368000016841F001010160016801F0010105914B
:10369000016841F0020101600068184E00F002006C
:1036A0000590002220213046FDF712FB144F002226
:1036B00010213846FDF70CFB4FF4005000901148E4
:1036C000CDE9010469463846FDF72EFA2020009026
:1036D0000125CDE90154694630460394FDF724FAEB
:1036E00010200090CDE90154694638460394FDF757
:1036F0001BFA07B0F0BD0000303802400000024065
:10370000000802400000211010B58EB0002407947C
:10371000089409940A940B941C2168460C94FCF7B5
:10372000CAFD1E484FF0804101605321C0E90114D9
:103730001B49C0E903148461FDF786FE08B1FDF75B
:10374000E0F94FF48050079007A91448FDF7AAFE4E
:1037500008B1FDF7D6F91148FEF7B0F808B1FDF74A
:10376000D0F90B940BA90D480C94FDF725FE08B178
:10377000FDF7C7F9602000900B20CDE9010400227D
:10378000694606480494FEF731F808B1FDF7B9F927
:103790000248FEF703F80EB010BD00008C010020B7
:1037A0003F0D030010B58CB0142104A8FCF783FD75
:1037B000002425480094019402940394099421491B
:1037C0000A9401605321C0E901144FF6FF71C0E96A
:1037D00003148461FDF761FF08B1FDF792F904203D
:1037E00004905020CDE90504079404A916480894D4
:1037F000FEF7A2F808B1FDF784F90120CDE90040F9
:1038000002940022694610480394FDF7B7FE08B100
:10381000FDF777F9022000900190042269460A48DA
:10382000FDF7ACFE08B1FDF76CF9099409A906484B
:103830000A94FDF7C1FD002801D0FDF762F90CB034
:1038400010BD000000040040CC0100200C4810B561
:103850000A4901604FF4E1314160002181600C228E
:10386000C160C0E904128161C161FEF790F80028CF
:1038700003D0BDE81040FDF744B910BD004400403E
:103880000C020020FEE7000010B52DED068BFDF7C1
:1038900039F8404C50B101280FD002289FED3E8BE3
:1038A0009FED3FAB1ED003283FD10DE094ED020AFF
:1038B000B1EE400A84ED020A37E094ED030AB1EE5E
:1038C000400A84ED030A30E094ED030AB1EE400AA9
:1038D00084ED030A2068FCF781FE41EC190B2D48AA
:1038E00028300CE094ED030AB1EE400A84ED030A9F
:1038F0002068FCF773FE41EC190B26481430006871
:10390000FCF76CFE53EC182BFCF7E0FC53EC192B86
:10391000FCF77DFD53EC182BFCF7F1FD53EC1A2B53
:10392000FCF77BFDFCF76DFEA06094ED010A00231F
:103930000522BDEEC00A10EE100A94ED000A01B295
:10394000BDEEC00A10EE100A00B2FEF715FB94EDB2
:10395000000AD4ED020A4FF6FF73052230EE200A6A
:1039600084ED000AD4ED010A94ED031ABDEEC00AFD
:1039700070EE810AC4ED010AFDEEE00ABDEC068B93
:1039800010EE900ABDE8104001B210EE100A00B22D
:10399000FEF7F2BA5001002000000000000039409C
:1039A00000000000000014C00FB438B504460998A8
:1039B00005AD009095E80F00FDF782F8A0BB002050
:1039C00000909DED060A0A233222BDEEC00A10EED9
:1039D000100A9DED050A01B2BDEEC00A10EE100AF4
:1039E00000B2FEF745FB9DED050ADDED070A4FF637
:1039F000FF700A2330EE200A32228DED050ADDED3C
:103A0000060A9DED081ABDEEC00A70EE810ACDEDE2
:103A1000060AFDEEE00A009010EE900A01B210EEE8
:103A2000100A00B2FEF724FB142205A92046FCF779
:103A300029FC38BC5DF814FB70477047704710B51F
:103A4000FEF742F81420FDF75DF80020FFF7AEFB0B
:103A5000BDE810400020FEF78DBC10B5FDF7A8FCB6
:103A6000BDE81040FDF740B930B593B03421684649
:103A7000FCF721FC14210DA8FCF71DFC1A480025B9
:103A8000016841F080510160006800F080501290A0
:103A90001648016821F4404141F48041016000680A
:103AA000022400F440401290012003901020009462
:103AB00006940490CDE907504FF4A87009900420B3
:103AC000CDE90A0468460C94FDF7AEFA0DA90F2063
:103AD00081E83100E002CDE9100502210DA8FDF7D3
:103AE0009FF913B030BD0000403802400070004024
:103AF0000548016841F47001016003494FF000601E
:103B0000803908607047000088ED00E00B480168CC
:103B1000890703D5016821F00201016001684907A6
:103B200004D5064928310968054A11600168C907AA
:103B300003D0016821F001010160704710040040CA
:103B400038000020F0B50268254C264D264E274F40
:103B5000274B4FF0804CA04209D0604507D0A842C7
:103B600005D0B04203D0B84201D0984204D122F02F
:103B7000700E4A6842EA0E02A0421BD0604519D07E
:103B8000A84217D0B04215D0B84213D0984211D0F5
:103B9000184DA8420ED0184DA8420BD0174DA84280
:103BA00008D0174DA84205D0164DA84202D0164D98
:103BB000A84203D122F44075CA682A434D6922F015
:103BC00080022A4302608A68C2620A688262A04256
:103BD00001D0984201D10969016301214161F0BD21
:103BE000000001400004004000080040000C0040BC
:103BF00000040140004001400044014000480140F1
:103C000000180040001C00400020004010B501F0EA
:103C10001F030121046A99408C430462016A9A409F
:103C20001143016210BD10B5846842EA032224F4F6
:103C30007F440A432243826010BD826822F07002F2
:103C40000A4342F00701816070470000F0B5026A44
:103C500022F001020262036A42688469124E24F073
:103C600073050C682C4323F002058B682B430D4D24
:103C7000A84201D0B04205D123F00807CB683B43EE
:103C800023F00403A84201D0B04205D14D6922F4CB
:103C9000407215438A692A434260846149684163DE
:103CA0000362F0BD0000014000040140F0B5026A6B
:103CB00022F010020262026A436884690D6824F4EB
:103CC000E64444EA05248D6822F0200242EA051207
:103CD0000F4D104EA84201D0B04206D1CF6822F05D
:103CE000800242EA071222F04002A84201D0B0420C
:103CF00007D14D6923F4406343EA85038D6943EAA4
:103D0000850343608461496881630262F0BD0000FD
:103D10000000014000040140F0B5026A22F4807204
:103D20000262026A4368C46922F4007224F07305D7
:103D30000C68124E2C438D6842EA05220E4DA842B3
:103D400001D0B04206D1CF6822F4006242EA0722D5
:103D500022F48062A84201D0B04207D14D6923F419
:103D6000405343EA05138D6943EA05134360C46178
:103D70004968C1630262F0BD0000014000040140D7
:103D800030B5026A22F480520262046A4268C36952
:103D90000D6823F4E64343EA05238D6824F40054B8
:103DA00044EA0534084DA84202D0084DA84204D187
:103DB0004D6922F4804242EA85124260C36149683B
:103DC0000164046230BD00000000014000040140B5
:103DD00010B503689A6822F070044A68224322F002
:103DE00007040A6822439A604A6812F00F0F30D124
:103DF0001211082A2DD2DFE802F02C2C2C2C0B21DA
:103E000027040B69D1E902210068FFF70CFF20E0CD
:103E10000A68052A10D00268136A146A24F00104A3
:103E2000146202689469096924F0F00444EA0111FB
:103E30009161006803620CE0012010BD0A69896885
:103E4000006800F008F804E00A698968006800F07A
:103E500053F8002010BD10B5036A046A24F0010471
:103E60000462846924F0F00444EA021423F00A0294
:103E70000A438461026210BD70B5046A24F0010433
:103E800004628469056A154EB04214D0B0F1804FC7
:103E900011D0134EB0420ED0124EB0420BD0124E83
:103EA000B04208D0114EB04205D0114EB04202D0FF
:103EB000104EB04203D124F00304144301E044F057
:103EC00001041A0724F0F00444EA126225F00A0300
:103ED00001F00A0119438261016270BD00000140D6
:103EE0000004004000080040000C004000040140B5
:103EF000004001400018004010B5036A23F0100391
:103F000003628369046A23F4704343EA023224F0B3
:103F1000A00343EA01118261016210BD30B5046A59
:103F200024F0100404628469056A24F4407444EAAD
:103F3000022222F470444FF6FF7202EA0332224357
:103F4000A02425F0A00304EA011119438261016253
:103F500030BD00002DE9F041044600680169E268C7
:103F600021F44051114301612169A068E2690843CD
:103F70006169114308432168CA6849F20C639A4396
:103F80000243CA6020684169A26921F4407111436B
:103F90004161E069192764253226B0F5004F354AA2
:103FA000354920684FF0000806D0884201D0904281
:103FB00036D1FCF7DFFF35E0884201D0904202D1D4
:103FC000FCF7D8FF01E0FCF7C5FF61684A18A0FBC9
:103FD000070148EB0803FCF711F90146B0FBF5F0C7
:103FE0000201B1FBF5F06FF01803584301EB8000BC
:103FF00006EBC000B0FBF5F000F0F80002EB400269
:10400000B1FBF5F0584301EB800006EBC000B0FBBC
:10401000F5F000F00700216810448860BDE8F081E9
:10402000FCF798FF61688B0F8A00A0FB0701FCF783
:10403000E5F80146B0FBF5F06FF01802504301EBD4
:10404000800006EB0010B0FBF5F000F0F002B1FBD1
:10405000F5F002EB0012B1FBF5F06FF018035843D6
:1040600001EB800006EB0010B0FBF5F000F00F0054
:10407000D1E700000014014000100140FEE738B510
:104080008DF800108DF80120049C8DF802308DF819
:1040900003406A46042100F001F838BD2DE9F04FD5
:1040A000BD4B4FF480341C60BC4B24019C614FF02D
:1040B000E06B040AC5B2C3F818B0B74F4FF0876E73
:1040C000C7F800E0B64E4FF40009C6F80090E707C5
:1040D000BF0D04F0040C47EA0C2704F0800C47EAFB
:1040E0004C079F6104F0080704F0100C4FF0100A11
:1040F00047EA4C0C0AEA54084CEA080C04F0400861
:104100004CEA081CDFF890825746C8F800C004F05B
:104110000204B446A401CCF800404FF400349C6182
:104120009C619C619C619C619C619C619C619C61A7
:104130009C619C619C619C6102249C619C61C3F8B0
:1041400018B0C8F800E0B046C8F800904FEAC57C47
:104150004FEA9C5C05F004084CEA082C05F0800846
:104160004CEA480CC3F818C005F0080C05F010081C
:104170004CEA480C07EA55084CEA080C05F04008E0
:104180004CEA081CDFF81082C8F800C005F00205F0
:10419000B446AD01CCF8005025049D619D619D6140
:1041A0009D619D619D619D619D619D619D619D611F
:1041B0009D619D619C619C619F617A4B454693F82E
:1041C00005B0DFE0754B12F8014B4FF0E0679F61DF
:1041D000C5F800E09F013760E707BF0D04F0040C4D
:1041E00047EA0C2704F0800C47EA4C079F6104F073
:1041F000080704F0100C47EA4C070AEA540C47EA97
:104200000C0704F0400C47EA0C172F6004F002047E
:10421000A40134604FF40039C3F81890C3F8189023
:10422000C3F81890C3F81890C3F81890C3F8189002
:10423000C3F81890C3F81890C3F81890C3F81890F2
:10424000C3F81890C3F81890C3F8189002249C6122
:104250009C6100297ED0BBF1000F7BD0401CDC00AC
:1042600080B29C614FF0E06C040AC7B2C3F818C07A
:10427000C5F800E04FF4000CC6F800C04FEAC47C5B
:104280004FEA9C5C04F004084CEA082C04F0800817
:104290004CEA480CC3F818C004F0080C04F01008ED
:1042A0004CEA480C0AEA54084CEA080C04F04008AE
:1042B0004CEA081CC5F800C004F00204A4013460F4
:1042C0004C46C3F81890C3F81890C3F81890C3F878
:1042D0001890C3F81890C3F81890C3F81890C3F852
:1042E0001890C3F81890C3F81890C3F81890C3F842
:1042F0001890C3F818904FF00209C3F81890C3F84B
:1043000018904FF0E06CC3F818C0C5F800E04FF407
:10431000000CC6F800C04FEAC77C4FEA9C5C07F06F
:1043200004084CEA082C07F080084CEA480CC3F853
:1043300018C007F0080C07F010084CEA480C0AEA0D
:1043400057084CEA080C07F040084CEA081CC5F86E
:1043500000C000E016E007F00207BF0137609C6173
:104360009C619C619C619C619C619C619C619C6165
:104370009C619C619C619C61C3F81890C3F8189083
:10438000C3F818A00B1EA1F1010149B23FF71AAF03
:1043900001202860BDE8F08F1804024000000240B0
:1043A000180802400000002037B514460846064BA6
:1043B0006A46214600F0ECF804466946002000F009
:1043C0007EFC20463EBD0000BF4C00080907090ED8
:1043D000002804DB00F1E02080F80014704700F0B2
:1043E0000F0000F1E02080F8141D704702E008C8BB
:1043F000121F08C1002AFAD170477047002001E05F
:1044000001C1121F002AFBD1704700002DE9FF5F98
:1044100082B00021DDE90430020DDDF840B0034335
:1044200018D044F61050A2F2FF32424315141198EE
:1044300001281FD0A5EB0B00401C5FEA000A4FF0DB
:1044400000064E4FDFF83891B046504615D5CAF1F8
:10445000000413E0119801244AA3012801D16FEA56
:104460000B010298119AC0E90031C0E9024206B07E
:10447000BDE8F09FCBF10000DFE704460021404A91
:10448000491842EB0450CDE9001012E0E00707D0D4
:1044900032463B4640464946FBF7BFFF80468946C9
:1044A00032463B4610461946FBF7B7FF06460F4615
:1044B0006410002CEAD1DDE90401DDE90023BAF142
:1044C000000F06DAFBF7A9FF42464B46FBF7A5FFB4
:1044D00005E0FCF714F842464B46FCF710F804469A
:1044E0000E460022284BFCF79BF903D84FF0FF3013
:1044F000014607E00022254B20463146FBF7E6FE49
:10450000FCF776F9102409E0002C0ADB0A220023CC
:10451000FBF774FE039B30321A55641E50EA010209
:10452000F2D1641C039AC4F111031444119A012AB4
:1045300003D0012208430DD10AE0084304D0002033
:104540004FF0110B119072E7A3EB0B056D1E0DE000
:104550005B4504DD4FF0000205F1010504E003DADC
:104560004FF00002A5F10105002AECD00298119944
:10457000C0E90231C0E9004579E7000000001440BD
:104580000000F03F300000000000F0430000E03F7A
:104590002DE9FF4F95B09B468946064600250FE260
:1045A000252877D100242746F84A0121059400E008
:1045B000044316F8013F203B01FA03F01042F7D103
:1045C00030782A2811D06FF02F033078A0F1300214
:1045D000092A16D8059A44F0020402EB820203EB82
:1045E00042021044761C0590EFE759F8042B05921F
:1045F000002A03DA504244F40054059044F00204C7
:10460000761C30782E2816D116F8010F44F00404D9
:104610002A280DD06FF02F023078A0F13003092B3B
:1046200009D807EB870302EB4303C718761CF3E7AF
:1046300059F8047B761C30786C280FD006DC4C28A7
:1046400017D068280DD06A2814D104E0742810D03F
:104650007A280FD10DE044F400140AE044F48014E9
:1046600001E044F440147278824202D104F58014CF
:10467000761C761C307866280BD013DC582877D04F
:1046800009DC002875D04528F6D04628F4D0472804
:104690001AD19DE118E0632835D0642879D06528C7
:1046A00012D195E1702873D008DC6728F1D0692811
:1046B0006FD06E280DD06F2806D1B5E073282CD0AE
:1046C000752875D0782874D05A46179990476D1C74
:1046D00075E1C4F30250022809D003280DD0D9F89F
:1046E000001004280DD00D6009F1040967E1D9F824
:1046F0000010EA17C1E90052F6E7D9F800100D8062
:10470000F2E70D70F0E719F8041B8DF80010002097
:104710008DF80100EA46012003E059F804AB4FF0A0
:10472000FF3061074FF0000102D40DE008F10101F4
:104730008846B9420FDA8045F8DB1AF808100029DC
:10474000F4D108E008F1010188468142FADB1AF849
:1047500008100029F6D105985B46A0EB0807214612
:104760003846179A00F094FA284400EB080507E051
:104770004DE029E10DE01AF8010B5A4617999047D0
:10478000B8F10108F7D25B4621463846179A13E183
:1047900042E00A220092C4F302524FF0000A022AB9
:1047A00008D059F804CB032A4FEAEC710AD00DE087
:1047B00029E02AE009F1070121F00702F2E802C12D
:1047C000914609E00FFA8CFC4FEAEC71042A03D100
:1047D0004FFA8CFC4FEAEC71002907DA0A460021F7
:1047E000DCF1000C61EB02012D2202E0220504D570
:1047F0002B228DF80420012203E0E20701D02022C1
:10480000F7E7904659E00A2102E010220DE010215E
:104810004FF0000A00910BE010224FF0000A44F024
:1048200004040827009203E008224FF0000A0092D7
:10483000C4F30252022A05D059F804CB0021032AFE
:1048400008D009E009F1070121F00702F2E802C1EE
:10485000914605E01FFA8CFC042A01D10CF0FF0CF4
:104860004FF00008220728D5702806D0009B83F05F
:10487000100353EA0A0305D00EE040228DF804200D
:10488000012208E05CEA010206D030228DF8042003
:104890008DF8050002229046009B83F0080353EA3E
:1048A0000A030AD15CEA010201D1620705D5302270
:1048B0008DF804204FF001087F1E582804D034A042
:1048C00003900EA802900DE036A0F9E7534660462B
:1048D000009AFBF793FC84460398825C0298401E82
:1048E000029002705CEA0100F0D1029806A9081A51
:1048F00000F1200A600702D524F4803400E001278B
:10490000574502DDA7EB0A0000E0002000EB0A019A
:10491000009005984144401A0590E00306D45B4698
:104920002146179A059800F0B3F90544002706E0E0
:1049300001A85A46C05D179990476D1C7F1C4745DA
:10494000F6DBE0030CD55B462146179A059800F08C
:104950009FF9054404E030205A46179990476D1C92
:104960000099481E00900029F5DC08E002980299A1
:104970005A460078491C0291179990476D1CBAF16C
:104980000001AAF1010AF1DC65E10000092801003B
:1049900030313233343536373839616263646566B5
:1049A0000000000030313233343536373839414277
:1049B000434445460000000000F058F90544761CC9
:1049C000307800287FF4ECAD19B02846BDE8F08FB0
:1049D000620700D4062709F1070222F0070CFCE861
:1049E0000223E14603F000485FEA080C02D00FF210
:1049F000702C0DE05FEA045C02D50FF2682C07E032
:104A00005FEAC47C02D00FF2602C01E0AFF2700CC0
:104A10004FF0FF3823F00043CDF850C065280CD08C
:104A200006DC452809D046281DD047283DD13DE069
:104A3000662818D067287ED138E00021112F01DBCD
:104A4000112000E0781CCDE9000106A90EA8FFF7AF
:104A5000DDFCDDE90F010E9A03910021009207F1C0
:104A6000010A04914DE04FF000400097CDE901109C
:104A700006A90EA8FFF7CAFCDDE90F0203920E9B00
:104A800011990022DDF80CA00093049211B9791C51
:104A900000EB010AB7EB0A0004D4C0F1FF3007F1C4
:104AA000010A0490AAEB0700019044E0012F00DA0C
:104AB00001270021112F01DD112000E03846CDE94A
:104AC000000106A90EA8FFF7A1FCDDE90F010E9A6F
:104AD0000391002104910092BA4621070CD4039956
:104AE000514500DA8A46BAF1010F05DD009AAAF1B4
:104AF0000101515C302908D0B84202DA10F1040FEC
:104B000006DA0121CDE9011015E0AAF10101E9E77A
:104B1000002805DC049901440491AAEB000102E09D
:104B2000411C514500DD8A460499401A401C019001
:104B30004FF000400290200704D40198504501DB5B
:104B4000CDF8048000208DF84F0002980DF14F073A
:104B5000B0F1004F25D02B200E9002984FF00208A4
:104B600000280CDA404202902D200E9007E00A2126
:104B70000298FBF762FD3031029007F8011DB8F191
:104B80000001A8F10108F2DC02980028EFD1791E9B
:104B90000E980870307800F0200040F0450007F8CB
:104BA000020D12A8C01B00F107081498007800B18C
:104BB000012000EB0A01019801EBE07105984144E6
:104BC000401A401E0590E00306D45B462146179A22
:104BD000059800F05DF805441498007818B15A461D
:104BE000179990476D1CE00324D55B462146179A20
:104BF000059800F04DF805441CE00498002807DBF8
:104C0000DDE90301884203DD0098405C179901E06B
:104C1000179930205A469047049805F10105401C29
:104C200004900198401E019004D12E205A461799F5
:104C300090476D1CBAF10001AAF1010ADDDC05E024
:104C400017F8010B5A46179990476D1CB8F10001EF
:104C5000A8F10108F4DC5B462146179A0598ABE6FB
:104C60002D0000002B000000200000002DE9F04185
:104C7000044600251E461746880404D405E039463C
:104C80002020B0476D1C641EF9D52846BDE8F08190
:104C90002DE9F041044600251E469046C80301D583
:104CA000302700E02027880404D505E04146384637
:104CB000B0476D1C641EF9D52846BDE8F0810A682E
:104CC000531C0B6010707047884200DA084670472A
:104CD000884200DD0846704720F03F0100F01F02C7
:104CE00041EA420100F001000843704700214FF4FF
:104CF0007A72504306E000BF00FB00F2491E02FB3F
:104D00000011401E0028F7DC0846704770B586B0D9
:104D10000E4604461DE000BF14F8013B14F8015B89
:104D20007F2B02D00020694609E02846FFF7DEFF0E
:104D300000250BE014F8012B0A54401CC0B2A84215
:104D4000F8D30A4669B21846FFF7A8F9701B801E0F
:104D500006B2002EE0DC06B070BD70B50D4604460C
:104D60004FF6FF760DE034F8020B34F8021BB04228
:104D700003D10846FFF7BAFF01E000F01FF92D1F2D
:104D80002DB2002DEFDC70BD2DED028B88B0FBF74E
:104D9000B3FFFEF769FEFEF75BFCFEF757FDFEF77B
:104DA000B3FCFEF7FFFC4FF47A70FBF7ABFEFEF7A7
:104DB00046FEFCF753FEFBF780FD01222021384818
:104DC000FBF786FF00213748FCF794FD00213648A9
:104DD000FCF7B8FC04213448FCF7B4FC334CDFF892
:104DE000D0809FED348A04F1140604F128070525CC
:104DF000D4E90801CDE9000104F1140102A80EC9AB
:104E0000FEF7D2FD2948142202A91430FBF73AFA22
:104E1000D4E90D01CDE9000104F1280102A80EC971
:104E2000FEF7C2FD2148142202A92830FBF72AFA16
:104E3000FEF72AFDFBF714FA90FBF5F105FB1100D4
:104E4000801E00EE100AB8EEC00A86ED020AFBF7DB
:104E500007FA90FBF5F105FB1100801E00EE100A29
:104E6000A0215020B8EEC00A87ED020AFEF798F99B
:104E7000D8F8000000EE100AF8EE400A80EE880A2A
:104E800010EE100AFBF7AAFB41EC100B0AA053EC42
:104E9000102BFDF7D9FA1920FBF734FEA8E7000024
:104EA000000002408C010020CC01002050010020B5
:104EB0003800002000006842252E32660D0A0000EE
:104EC00070B53B480123836119048161816181616F
:104ED00081618161816181618161816181618161C2
:104EE00081618161816181610269324CC2F340223A
:104EF000256805F0800542EA9512056905F480658C
:104F000042EA15252C4A166806F00806354316684D
:104F100006F0200645EA5605166806F0100645EA32
:104F20004605166806F4806645EA1615066983612B
:104F300006F4807645EA560583618361816181616B
:104F40008161816181618161816181618161816151
:104F50008161816181618161816101692468C1F33D
:104F6000402104F0800441EA9411046904F480644F
:104F700041EA1421146804F008042143146804F081
:104F8000200441EA54011468126804F0100441EA54
:104F9000440102F4806241EA12110269836102F461
:104FA000807241EA5201836141EA052070BD000030
:104FB0000000024010080240100402402DE9F04FAA
:104FC000754A88464FF4803111600B0173498B613B
:104FD0004FF0E069040AC3B2C1F818904FF0876A35
:104FE000C2F800A06E4D4FF4000BC5F800B0E0070A
:104FF000800D04F0040640EA062604F0800046EA2C
:105000004000886104F0080604F0100046EA400001
:10501000102606EA5407384304F0400740EA071018
:10502000106004F0020080012860700388618861CC
:105030008861886188618861886188618861886128
:1050400088618861886102278F618F61C1F818903B
:10505000C2F800A0C5F800B0DC07A40D03F0040CF2
:1050600044EA0C2403F0800C44EA4C048C6103F005
:10507000080403F0100C44EA4C0406EA530C44EA1A
:105080000C0403F0400C44EA0C14146003F0020317
:105090009B012B6088618861886188618861886173
:1050A00088618861886188618861886188618F61B1
:1050B0008F618E614FEA182408F0FF03C1F8189041
:1050C000C2F800A0C5F800B04FEAC47C4FEA9C5C6F
:1050D00004F004084CEA082C04F080084CEA480C60
:1050E000C1F818C004F0080C04F010084CEA480C91
:1050F00006EA54084CEA080C04F040084CEA081C84
:10510000C2F800C004F00204A4012C608861886128
:105110008861886188618861886188618861886147
:105120008861886188618F618F61C1F81890C2F8C9
:1051300000A0C5F800B0DC07A40D03F0040C44EA9D
:105140000C2403F0800C44EA4C048C6103F0080446
:1051500003F0100C44EA4C0406EA5306344303F00F
:10516000400644EA0614146003F002039B012B601E
:1051700088618861886188618861886188618861E7
:10518000886188618861886188618F618F61012091
:105190001060BDE8F08F00001804024000000240DB
:1051A000180802407F0A7F01B001003A015536011C
:1051B00000B00100C0010A11007F96290000000024
:1051C00000003E5B4F5B3E3E6B4F6B3E1C3E7C3EA9
:1051D0001C183C7E3C181C577D571C1C5E7F5E1CB7
:1051E00000183C1800FFE7C3E7FF0018241800FF71
:1051F000E7DBE7FF30483A060E2629792926407F6B
:10520000050507407F05253F5A3CE73C5A7F3E1C79
:105210001C08081C1C3E7F14227F22145F5F005F65
:105220005F06097F017F006689956A606060606043
:1052300094A2FFA29408047E040810207E20100887
:10524000082A1C08081C2A08081E101010100C1E22
:105250000C1E0C30383E3830060E3E0E06000000A4
:10526000000000005F00000007000700147F147FAB
:1052700014242A7F2A1223130864623649562050C8
:105280000008070300001C2241000041221C002AE4
:105290001C7F1C2A08083E0808008070300008089F
:1052A000080808000060600020100804023E514910
:1052B000453E00427F400072494949462141494DDF
:1052C000331814127F1027454545393C4A49493166
:1052D00041211109073649494936464949291E00E5
:1052E000001400000040340000000814224114148F
:1052F000141414004122140802015909063E415DAC
:10530000594E7C1211127C7F494949363E41414138
:10531000227F4141413E7F494949417F09090901B5
:105320003E414151737F0808087F00417F410020C2
:1053300040413F017F081422417F404040407F02AE
:105340001C027F7F0408107F3E4141413E7F0909D6
:1053500009063E4151215E7F0919294626494949DE
:105360003203017F01033F4040403F1F2040201F88
:105370003F4038403F63140814630304780403611A
:1053800059494D43007F414141020408102000412A
:1053900041417F04020102044040404040000307B5
:1053A000080020545478407F28444438384444440A
:1053B00028384444287F385454541800087E090281
:1053C00018A4A49C787F0804047800447D40002041
:1053D00040403D007F1028440000417F40007C0495
:1053E0007804787C080404783844444438FC182451
:1053F000241818242418FC7C080404084854545425
:105400002404043F44243C4040207C1C2040201CB9
:105410003C4030403C44281028444C9090907C44C0
:1054200064544C44000836410000007700000041FD
:1054300036080002010204020705070000001100FF
:105440001A001200213113006C00140049421000B0
:105450000008FFFF0A0011001A01FFFF0A001100F7
:105460001A03FFFF0A0011001A07FFFF0A001100CC
:105470001A0FFFFF0A0011003A0FFFFF1E00010084
:10548000280102000001030030100700121008007C
:1054900003030B0000110C0000000F0001181500A1
:1054A000200050000101510003065200080453007F
:1054B000000054000506550006045600030357007B
:1054C0000303580010005900001007001200FFFFEE
:1054D00028000700130007001700B00103E2013F96
:1054E000C00122E20100150030009A0010001100F6
:1054F0002000100028341200020013003810FFFFB3
:10550000280012001200FFFF2800100020341300B2
:105510004530FFFF46003000000031000204320039
:10552000070333000403340004003500010436008F
:105530000707370005033800100639001006010080
:1055400000010200000303003010080008080A00F0
:105550000800600000276100010090003E019200F9
:10556000000193000001A0000030A300100007001C
:105570000100070021000700230007003300070097
:105580003301FF000100F3000800000001000100EA
:1055900000010200000703003010080002030900A8
:1055A00000001000000011000700120000001300AE
:1055B0000000FFFF32001000B014FFFF0A001100CE
:1055C0000700FFFF0A0012008E001300000C2900E4
:1055D0001500FFFF0A003000000031000701320013
:1055E00000003500030236000204370000003800D6
:1055F0000702390000003C0003023D000304600084
:1056000000A7610001009000290007003301FFFF9F
:105610003200B2050C0C003333B70135BB012BC08F
:105620000104C20201FFC30111C40120C6010FD051
:1056300002A4A1E00ED000050E150D374347091551
:10564000121619E10ED000050D0C062D44400E1C5B
:10565000181619F20B161603080808081004161677
:10566000FD03110235B903FF83577F967F96B6017C
:1056700025C0065050013C1E08B4070240002A2AEB
:105680000D78B00100C10410100202C00600350000
:10569000000102C50104D2020104CA0100EA01802E
:1056A000F603010100CF03008130ED046403128191
:1056B000E803851078CB05392C003402F70120EA85
:1056C000020000B00100B102001BB40100C00121C2
:1056D000C10111C5023F3CC701B5360148F20100C6
:1056E000260101E00F0F26240B0E0954A8460C17C3
:1056F000090F0700E10F00191B0410072A4739039F
:10570000060630380FC0020D0DC1024300C2010071
:10571000C50400480048B40100B60302023BE00F94
:105720000F211C0B0E08499838091103141000E1D1
:105730000F0F2F2B0C0E06477637071104231E0080
:105740000000000000000000000000000000010058
:10575000A4000100FFFF0A006000002708000808FD
:105760003000140231001537320004063300160EE3
:105770003400112235000015360007853700071464
:1057800038000314390020009000150010001004A8
:1057900011003702290046002A00460007000000D9
:1057A0001200890113000011FFFF96001200B901D9
:1057B0000100000102000002030030100900010096
:1057C0000A0000000D0000000E0030006100010022
:1057D0006A000000800000008100000082005F007D
:1057E0009200000193000107FFFF50000700000135
:1057F00000000000000000000000000000000000A9
:10580000FFFF0F0000040062080008080003000CFE
:1058100001030B5A020306090303171004030023B4
:1058200005030017060309630703090C08030C109E
:1058300009033222100016001100010112000000BD
:105840001300010000013003010137020301000DC4
:10585000800200610201B0C1FFFF320001000001BF
:105860000200000103003010090001000C000000DC
:10587000900000800F000000100200001102EF00F5
:105880001202000013028F01000500000105000054
:1058900002055F000104010004040000FFFF320064
:1058A00007000001FFFF32000002000001020000BB
:1058B000E500008000000100010000010200000777
:1058C000030030100400000008000202090000007C
:1058D0000A0000000C0000000D0000000F00000096
:1058E000100000001100070012000000130000006B
:1058F000FFFF32001000B01711000700FFFF0A0081
:1059000012003A01FFFF0A001300001A29000C00E0
:10591000FFFF0A00300000003100050532000400DE
:105920003500060036000707370005013800020081
:10593000390007073C0004073D000708600000A786
:10594000610001006A00000021000000200000004A
:105950008000000081000000820000008300000041
:1059600084000000850000009000100092000000FC
:1059700093000300950010019700000098000000BC
:1059800007007301FFFF3200E500F078010000011D
:1059900002000002030030100400000005000000B7
:1059A00008000702090000000A0000000C000000C7
:1059B0000D0000000F0000001000000011000700A3
:1059C000120000001300000007000100FFFFC800E4
:1059D0001000901611002702FFFF320012000D0088
:1059E000FFFF32001300001229000A002B000D00F7
:1059F000FFFF320020000000210000003000000006
:105A000031000404320003003500050436000808A4
:105A10003700070438000303390007073C0004057A
:105A20003D00080860000027610001006A000000D6
:105A30008000000081000000820000008300000060
:105A4000840000008500000090001000920000001B
:105A500007003301B00100B30402000000B40100EC
:105A6000D003074218D103000710D2020102D3026B
:105A70000102D4020102C005123B000211C1031051
:105A80001088C50103C60102C80C0032364506164F
:105A9000377577540C00CC0100C0021010C10141D1
:105AA000C50400228040360168B00100B102B01187
:105AB000B40102B60302023BB701C63A0155F7042E
:105AC000A9512C8201007F9628003A015500000060
:105AD000000000000001020304060708090000009E
